{
  "contractName": "ERC721Metadata",
  "abi": [
    {
      "inputs": [
        {
          "internalType": "string",
          "name": "named",
          "type": "string"
        },
        {
          "internalType": "string",
          "name": "symbolified",
          "type": "string"
        }
      ],
      "stateMutability": "nonpayable",
      "type": "constructor"
    },
    {
      "inputs": [
        {
          "internalType": "bytes4",
          "name": "interfaceID",
          "type": "bytes4"
        }
      ],
      "name": "supportsInterface",
      "outputs": [
        {
          "internalType": "bool",
          "name": "",
          "type": "bool"
        }
      ],
      "stateMutability": "view",
      "type": "function"
    },
    {
      "inputs": [],
      "name": "name",
      "outputs": [
        {
          "internalType": "string",
          "name": "",
          "type": "string"
        }
      ],
      "stateMutability": "view",
      "type": "function"
    },
    {
      "inputs": [],
      "name": "symbol",
      "outputs": [
        {
          "internalType": "string",
          "name": "",
          "type": "string"
        }
      ],
      "stateMutability": "view",
      "type": "function"
    }
  ],
  "bytecode": "0x60806040523480156200001157600080fd5b50604051620009e6380380620009e68339818101604052810190620000379190620002fb565b620000687f01ffc9a7a5cef8baa21ed3c5c0d7e23accb804b619e9333b597f47a0d84076e2620000f560201b60201c565b620000bb7f13b182f4c0e5b2efbac0efe6cf6d756c8b89f4b79c5707a043ed9ea740574ee97f7feaf19471f34a12a7eaf32d5f3090aa2260ea8624dc8a138e74e0bf0f62307618620000f560201b60201c565b8160019080519060200190620000d3929190620001cd565b508060029080519060200190620000ec929190620001cd565b50505062000587565b63ffffffff60e01b817bffffffffffffffffffffffffffffffffffffffffffffffffffffffff1916141562000161576040517f08c379a00000000000000000000000000000000000000000000000000000000081526004016200015890620003a7565b60405180910390fd5b6001600080837bffffffffffffffffffffffffffffffffffffffffffffffffffffffff19167bffffffffffffffffffffffffffffffffffffffffffffffffffffffff1916815260200190815260200160002060006101000a81548160ff02191690831515021790555050565b828054620001db906200046f565b90600052602060002090601f016020900481019282620001ff57600085556200024b565b82601f106200021a57805160ff19168380011785556200024b565b828001600101855582156200024b579182015b828111156200024a5782518255916020019190600101906200022d565b5b5090506200025a91906200025e565b5090565b5b80821115620002795760008160009055506001016200025f565b5090565b6000620002946200028e84620003f2565b620003c9565b905082815260208101848484011115620002b357620002b26200053e565b5b620002c084828562000439565b509392505050565b600082601f830112620002e057620002df62000539565b5b8151620002f28482602086016200027d565b91505092915050565b6000806040838503121562000315576200031462000548565b5b600083015167ffffffffffffffff81111562000336576200033562000543565b5b6200034485828601620002c8565b925050602083015167ffffffffffffffff81111562000368576200036762000543565b5b6200037685828601620002c8565b9150509250929050565b60006200038f60198362000428565b91506200039c826200055e565b602082019050919050565b60006020820190508181036000830152620003c28162000380565b9050919050565b6000620003d5620003e8565b9050620003e38282620004a5565b919050565b6000604051905090565b600067ffffffffffffffff82111562000410576200040f6200050a565b5b6200041b826200054d565b9050602081019050919050565b600082825260208201905092915050565b60005b83811015620004595780820151818401526020810190506200043c565b8381111562000469576000848401525b50505050565b600060028204905060018216806200048857607f821691505b602082108114156200049f576200049e620004db565b5b50919050565b620004b0826200054d565b810181811067ffffffffffffffff82111715620004d257620004d16200050a565b5b80604052505050565b7f4e487b7100000000000000000000000000000000000000000000000000000000600052602260045260246000fd5b7f4e487b7100000000000000000000000000000000000000000000000000000000600052604160045260246000fd5b600080fd5b600080fd5b600080fd5b600080fd5b6000601f19601f8301169050919050565b7f496e76616c696420696e74657266616365207265717565737400000000000000600082015250565b61044f80620005976000396000f3fe608060405234801561001057600080fd5b50600436106100415760003560e01c806301ffc9a71461004657806306fdde031461007657806395d89b4114610094575b600080fd5b610060600480360381019061005b9190610252565b6100b2565b60405161006d91906102c7565b60405180910390f35b61007e610119565b60405161008b91906102e2565b60405180910390f35b61009c6101ab565b6040516100a991906102e2565b60405180910390f35b6000806000837bffffffffffffffffffffffffffffffffffffffffffffffffffffffff19167bffffffffffffffffffffffffffffffffffffffffffffffffffffffff1916815260200190815260200160002060009054906101000a900460ff169050919050565b6060600180546101289061038b565b80601f01602080910402602001604051908101604052809291908181526020018280546101549061038b565b80156101a15780601f10610176576101008083540402835291602001916101a1565b820191906000526020600020905b81548152906001019060200180831161018457829003601f168201915b5050505050905090565b6060600280546101ba9061038b565b80601f01602080910402602001604051908101604052809291908181526020018280546101e69061038b565b80156102335780601f1061020857610100808354040283529160200191610233565b820191906000526020600020905b81548152906001019060200180831161021657829003601f168201915b5050505050905090565b60008135905061024c81610402565b92915050565b600060208284031215610268576102676103ec565b5b60006102768482850161023d565b91505092915050565b61028881610320565b82525050565b600061029982610304565b6102a3818561030f565b93506102b3818560208601610358565b6102bc816103f1565b840191505092915050565b60006020820190506102dc600083018461027f565b92915050565b600060208201905081810360008301526102fc818461028e565b905092915050565b600081519050919050565b600082825260208201905092915050565b60008115159050919050565b60007fffffffff0000000000000000000000000000000000000000000000000000000082169050919050565b60005b8381101561037657808201518184015260208101905061035b565b83811115610385576000848401525b50505050565b600060028204905060018216806103a357607f821691505b602082108114156103b7576103b66103bd565b5b50919050565b7f4e487b7100000000000000000000000000000000000000000000000000000000600052602260045260246000fd5b600080fd5b6000601f19601f8301169050919050565b61040b8161032c565b811461041657600080fd5b5056fea2646970667358221220eb39ab52be79e7f0aef68d26bcb6d6931ca974b2368927bcf65760b6e2705c5d64736f6c63430008070033",
  "immutableReferences": {},
  "source": "// SPDX-License-Identifier: MIT\npragma solidity ^0.8.0;\n\nimport './interfaces/IERC721Metadata.sol';\nimport './ERC165.sol';\n\ncontract ERC721Metadata is IERC721Metadata, ERC165 {\n\n    string private _name;\n    string private _symbol;\n\n    constructor(string memory named, string memory symbolified) {\n\n        _registerInterface(bytes4(keccak256('name(bytes4)')^\n        keccak256('symbol(bytes4)')));\n\n        _name = named;\n        _symbol = symbolified;\n    }\n\n    function name() external view override returns(string memory) {\n        return _name;\n    }\n\n    function symbol() external view override returns(string memory) {\n    return _symbol;\n    }\n\n}",
  "sourcePath": "/Users/mauriceknecht/Desktop/nft-marketplace-starter-kit/src/contracts/ERC721Metadata.sol",
  "compiler": {
    "name": "solc",
    "version": "0.8.7+commit.e28d00a7.Emscripten.clang"
  },
  "schemaVersion": "3.4.1",
  "updatedAt": "2021-09-16T20:01:53.860Z",
  "devdoc": {
    "kind": "dev",
    "methods": {
      "supportsInterface(bytes4)": {
        "details": "Interface identification is specified in ERC-165. This function  uses less than 30,000 gas.",
        "params": {
          "interfaceID": "The interface identifier, as specified in ERC-165"
        },
        "returns": {
          "_0": "`true` if the contract implements `interfaceID` and  `interfaceID` is not 0xffffffff, `false` otherwise"
        }
      }
    },
    "version": 1
  },
  "userdoc": {
    "kind": "user",
    "methods": {
      "supportsInterface(bytes4)": {
        "notice": "Query if a contract implements an interface"
      }
    },
    "version": 1
  }
}