{
  "contractName": "KryptoBird",
  "abi": [
    {
      "inputs": [],
      "stateMutability": "nonpayable",
      "type": "constructor"
    },
    {
      "anonymous": false,
      "inputs": [
        {
          "indexed": true,
          "internalType": "address",
          "name": "_owner",
          "type": "address"
        },
        {
          "indexed": true,
          "internalType": "address",
          "name": "_approved",
          "type": "address"
        },
        {
          "indexed": true,
          "internalType": "uint256",
          "name": "_tokenId",
          "type": "uint256"
        }
      ],
      "name": "Approval",
      "type": "event"
    },
    {
      "anonymous": false,
      "inputs": [
        {
          "indexed": true,
          "internalType": "address",
          "name": "_from",
          "type": "address"
        },
        {
          "indexed": true,
          "internalType": "address",
          "name": "_to",
          "type": "address"
        },
        {
          "indexed": true,
          "internalType": "uint256",
          "name": "_tokenId",
          "type": "uint256"
        }
      ],
      "name": "Transfer",
      "type": "event"
    },
    {
      "inputs": [
        {
          "internalType": "address",
          "name": "_to",
          "type": "address"
        },
        {
          "internalType": "uint256",
          "name": "tokenId",
          "type": "uint256"
        }
      ],
      "name": "approve",
      "outputs": [],
      "stateMutability": "nonpayable",
      "type": "function"
    },
    {
      "inputs": [
        {
          "internalType": "address",
          "name": "_owner",
          "type": "address"
        }
      ],
      "name": "balanceOf",
      "outputs": [
        {
          "internalType": "uint256",
          "name": "",
          "type": "uint256"
        }
      ],
      "stateMutability": "view",
      "type": "function",
      "constant": true
    },
    {
      "inputs": [
        {
          "internalType": "uint256",
          "name": "",
          "type": "uint256"
        }
      ],
      "name": "kryptoBirdz",
      "outputs": [
        {
          "internalType": "string",
          "name": "",
          "type": "string"
        }
      ],
      "stateMutability": "view",
      "type": "function",
      "constant": true
    },
    {
      "inputs": [],
      "name": "name",
      "outputs": [
        {
          "internalType": "string",
          "name": "",
          "type": "string"
        }
      ],
      "stateMutability": "view",
      "type": "function",
      "constant": true
    },
    {
      "inputs": [
        {
          "internalType": "uint256",
          "name": "_tokenId",
          "type": "uint256"
        }
      ],
      "name": "ownerOf",
      "outputs": [
        {
          "internalType": "address",
          "name": "",
          "type": "address"
        }
      ],
      "stateMutability": "view",
      "type": "function",
      "constant": true
    },
    {
      "inputs": [
        {
          "internalType": "bytes4",
          "name": "interfaceID",
          "type": "bytes4"
        }
      ],
      "name": "supportsInterface",
      "outputs": [
        {
          "internalType": "bool",
          "name": "",
          "type": "bool"
        }
      ],
      "stateMutability": "view",
      "type": "function",
      "constant": true
    },
    {
      "inputs": [],
      "name": "symbol",
      "outputs": [
        {
          "internalType": "string",
          "name": "",
          "type": "string"
        }
      ],
      "stateMutability": "view",
      "type": "function",
      "constant": true
    },
    {
      "inputs": [
        {
          "internalType": "uint256",
          "name": "index",
          "type": "uint256"
        }
      ],
      "name": "tokenByIndex",
      "outputs": [
        {
          "internalType": "uint256",
          "name": "",
          "type": "uint256"
        }
      ],
      "stateMutability": "view",
      "type": "function",
      "constant": true
    },
    {
      "inputs": [
        {
          "internalType": "address",
          "name": "owner",
          "type": "address"
        },
        {
          "internalType": "uint256",
          "name": "index",
          "type": "uint256"
        }
      ],
      "name": "tokenOfOwnerByIndex",
      "outputs": [
        {
          "internalType": "uint256",
          "name": "",
          "type": "uint256"
        }
      ],
      "stateMutability": "view",
      "type": "function",
      "constant": true
    },
    {
      "inputs": [],
      "name": "totalSupply",
      "outputs": [
        {
          "internalType": "uint256",
          "name": "",
          "type": "uint256"
        }
      ],
      "stateMutability": "view",
      "type": "function",
      "constant": true
    },
    {
      "inputs": [
        {
          "internalType": "address",
          "name": "_from",
          "type": "address"
        },
        {
          "internalType": "address",
          "name": "_to",
          "type": "address"
        },
        {
          "internalType": "uint256",
          "name": "_tokenId",
          "type": "uint256"
        }
      ],
      "name": "transferFrom",
      "outputs": [],
      "stateMutability": "nonpayable",
      "type": "function"
    },
    {
      "inputs": [
        {
          "internalType": "string",
          "name": "_kryptoBird",
          "type": "string"
        }
      ],
      "name": "mint",
      "outputs": [],
      "stateMutability": "nonpayable",
      "type": "function"
    }
  ],
  "bytecode": "0x60806040523480156200001157600080fd5b506040518060400160405280600a81526020017f4b727970746f42697264000000000000000000000000000000000000000000008152506040518060400160405280600681526020017f4b424952445a00000000000000000000000000000000000000000000000000008152508181620000b17f01ffc9a7a5cef8baa21ed3c5c0d7e23accb804b619e9333b597f47a0d84076e26200022a60201b60201c565b620001047f13b182f4c0e5b2efbac0efe6cf6d756c8b89f4b79c5707a043ed9ea740574ee97f7feaf19471f34a12a7eaf32d5f3090aa2260ea8624dc8a138e74e0bf0f623076186200022a60201b60201c565b81600190805190602001906200011c92919062000302565b5080600290805190602001906200013592919062000302565b505050620001ad7f22c82707ba960a14c7592ffb6b8cfaa073fed0048a84cc7fa41f6b5bd8e7f2e47f3a6eb71757dfc6e784c1459d26270140c2c147d95ca985c80026fc5301c3eca17f8a7e378434598edc36d108689a030cbc9d7d465de4f74c71bae1028eed6a881b18186200022a60201b60201c565b620002227f8230223f691b981717299fae9549350a0d894555723531f02108b1f522c1a7977f6da5e1284143cdd2d15038a59bde3be031250f00291d64494c12d967b3a4e0c37fc53637662700e6c65104059db8bba34439e0c32483ab7c34e3ccae52c739549518186200022a60201b60201c565b50506200049a565b63ffffffff60e01b817bffffffffffffffffffffffffffffffffffffffffffffffffffffffff1916141562000296576040517f08c379a00000000000000000000000000000000000000000000000000000000081526004016200028d90620003d9565b60405180910390fd5b6001600080837bffffffffffffffffffffffffffffffffffffffffffffffffffffffff19167bffffffffffffffffffffffffffffffffffffffffffffffffffffffff1916815260200190815260200160002060006101000a81548160ff02191690831515021790555050565b82805462000310906200040c565b90600052602060002090601f01602090048101928262000334576000855562000380565b82601f106200034f57805160ff191683800117855562000380565b8280016001018555821562000380579182015b828111156200037f57825182559160200191906001019062000362565b5b5090506200038f919062000393565b5090565b5b80821115620003ae57600081600090555060010162000394565b5090565b6000620003c1601983620003fb565b9150620003ce8262000471565b602082019050919050565b60006020820190508181036000830152620003f481620003b2565b9050919050565b600082825260208201905092915050565b600060028204905060018216806200042557607f821691505b602082108114156200043c576200043b62000442565b5b50919050565b7f4e487b7100000000000000000000000000000000000000000000000000000000600052602260045260246000fd5b7f496e76616c696420696e74657266616365207265717565737400000000000000600082015250565b611e4180620004aa6000396000f3fe608060405234801561001057600080fd5b50600436106100b45760003560e01c80634f6ccce7116100715780634f6ccce71461018d5780636352211e146101bd57806370a08231146101ed57806393ab6e561461021d57806395d89b411461024d578063d85d3d271461026b576100b4565b806301ffc9a7146100b957806306fdde03146100e9578063095ea7b31461010757806318160ddd1461012357806323b872dd146101415780632f745c591461015d575b600080fd5b6100d360048036038101906100ce91906112e7565b610287565b6040516100e091906115f7565b60405180910390f35b6100f16102ee565b6040516100fe9190611612565b60405180910390f35b610121600480360381019061011c91906112a7565b610380565b005b61012b61051c565b60405161013891906117b4565b60405180910390f35b61015b60048036038101906101569190611254565b610529565b005b610177600480360381019061017291906112a7565b61054c565b60405161018491906117b4565b60405180910390f35b6101a760048036038101906101a2919061135d565b6105fc565b6040516101b491906117b4565b60405180910390f35b6101d760048036038101906101d2919061135d565b61066d565b6040516101e491906115dc565b60405180910390f35b61020760048036038101906102029190611227565b61071f565b60405161021491906117b4565b60405180910390f35b6102376004803603810190610232919061135d565b6107de565b6040516102449190611612565b60405180910390f35b61025561088a565b6040516102629190611612565b60405180910390f35b61028560048036038101906102809190611314565b61091c565b005b6000806000837bffffffffffffffffffffffffffffffffffffffffffffffffffffffff19167bffffffffffffffffffffffffffffffffffffffffffffffffffffffff1916815260200190815260200160002060009054906101000a900460ff169050919050565b6060600180546102fd9061198c565b80601f01602080910402602001604051908101604052809291908181526020018280546103299061198c565b80156103765780601f1061034b57610100808354040283529160200191610376565b820191906000526020600020905b81548152906001019060200180831161035957829003601f168201915b5050505050905090565b600061038b8261066d565b90508073ffffffffffffffffffffffffffffffffffffffff168373ffffffffffffffffffffffffffffffffffffffff1614156103fc576040517f08c379a00000000000000000000000000000000000000000000000000000000081526004016103f390611634565b60405180910390fd5b8073ffffffffffffffffffffffffffffffffffffffff163373ffffffffffffffffffffffffffffffffffffffff161461046a576040517f08c379a000000000000000000000000000000000000000000000000000000000815260040161046190611734565b60405180910390fd5b826005600084815260200190815260200160002060006101000a81548173ffffffffffffffffffffffffffffffffffffffff021916908373ffffffffffffffffffffffffffffffffffffffff160217905550818373ffffffffffffffffffffffffffffffffffffffff168273ffffffffffffffffffffffffffffffffffffffff167f8c5be1e5ebec7d5bd14f71427d1e84f3dd0314c0f7b2291e5b200ac8c7c3b92560405160405180910390a4505050565b6000600680549050905090565b6105333382610a1f565b61053c57600080fd5b610547838383610aae565b505050565b60006105578361071f565b8210610598576040517f08c379a000000000000000000000000000000000000000000000000000000000815260040161058f906116b4565b60405180910390fd5b600860008473ffffffffffffffffffffffffffffffffffffffff1673ffffffffffffffffffffffffffffffffffffffff16815260200190815260200160002082815481106105e9576105e8611a4d565b5b9060005260206000200154905092915050565b600061060661051c565b8210610647576040517f08c379a000000000000000000000000000000000000000000000000000000000815260040161063e90611694565b60405180910390fd5b6006828154811061065b5761065a611a4d565b5b90600052602060002001549050919050565b6000806003600084815260200190815260200160002060009054906101000a900473ffffffffffffffffffffffffffffffffffffffff169050600073ffffffffffffffffffffffffffffffffffffffff168173ffffffffffffffffffffffffffffffffffffffff161415610716576040517f08c379a000000000000000000000000000000000000000000000000000000000815260040161070d90611654565b60405180910390fd5b80915050919050565b60008073ffffffffffffffffffffffffffffffffffffffff168273ffffffffffffffffffffffffffffffffffffffff161415610790576040517f08c379a000000000000000000000000000000000000000000000000000000000815260040161078790611654565b60405180910390fd5b6107d7600460008473ffffffffffffffffffffffffffffffffffffffff1673ffffffffffffffffffffffffffffffffffffffff168152602001908152602001600020610cd4565b9050919050565b600a81815481106107ee57600080fd5b9060005260206000200160009150905080546108099061198c565b80601f01602080910402602001604051908101604052809291908181526020018280546108359061198c565b80156108825780601f1061085757610100808354040283529160200191610882565b820191906000526020600020905b81548152906001019060200180831161086557829003601f168201915b505050505081565b6060600280546108999061198c565b80601f01602080910402602001604051908101604052809291908181526020018280546108c59061198c565b80156109125780601f106108e757610100808354040283529160200191610912565b820191906000526020600020905b8154815290600101906020018083116108f557829003601f168201915b5050505050905090565b600b8160405161092c91906115c5565b908152602001604051809103902060009054906101000a900460ff1615610988576040517f08c379a000000000000000000000000000000000000000000000000000000000815260040161097f906116f4565b60405180910390fd5b600a819080600181540180825580915050600190039060005260206000200160009091909190915090805190602001906109c39291906110d5565b5060006001600a805490506109d891906118a2565b90506109e43382610ce2565b6001600b836040516109f691906115c5565b908152602001604051809103902060006101000a81548160ff0219169083151502179055505050565b6000610a2a82610d03565b610a69576040517f08c379a0000000000000000000000000000000000000000000000000000000008152600401610a6090611794565b60405180910390fd5b6000610a748361066d565b90508073ffffffffffffffffffffffffffffffffffffffff168473ffffffffffffffffffffffffffffffffffffffff161491505092915050565b600073ffffffffffffffffffffffffffffffffffffffff168273ffffffffffffffffffffffffffffffffffffffff161415610b1e576040517f08c379a0000000000000000000000000000000000000000000000000000000008152600401610b15906116d4565b60405180910390fd5b8273ffffffffffffffffffffffffffffffffffffffff16610b3e8261066d565b73ffffffffffffffffffffffffffffffffffffffff1614610b94576040517f08c379a0000000000000000000000000000000000000000000000000000000008152600401610b8b90611774565b60405180910390fd5b610bdb600460008573ffffffffffffffffffffffffffffffffffffffff1673ffffffffffffffffffffffffffffffffffffffff168152602001908152602001600020610d75565b610c22600460008473ffffffffffffffffffffffffffffffffffffffff1673ffffffffffffffffffffffffffffffffffffffff168152602001908152602001600020610d98565b816003600083815260200190815260200160002060006101000a81548173ffffffffffffffffffffffffffffffffffffffff021916908373ffffffffffffffffffffffffffffffffffffffff160217905550808273ffffffffffffffffffffffffffffffffffffffff168473ffffffffffffffffffffffffffffffffffffffff167fddf252ad1be2c89b69c2b068fc378daa952ba7f163c4a11628f55a4df523b3ef60405160405180910390a4505050565b600081600001549050919050565b610cec8282610db7565b610cf581610f69565b610cff8282610fb2565b5050565b6000806003600084815260200190815260200160002060009054906101000a900473ffffffffffffffffffffffffffffffffffffffff169050600073ffffffffffffffffffffffffffffffffffffffff168173ffffffffffffffffffffffffffffffffffffffff161415915050919050565b610d8d6001826000015461107690919063ffffffff16565b816000018190555050565b6001816000016000828254610dad919061184c565b9250508190555050565b600073ffffffffffffffffffffffffffffffffffffffff168273ffffffffffffffffffffffffffffffffffffffff161415610e27576040517f08c379a0000000000000000000000000000000000000000000000000000000008152600401610e1e90611754565b60405180910390fd5b610e3081610d03565b15610e70576040517f08c379a0000000000000000000000000000000000000000000000000000000008152600401610e6790611674565b60405180910390fd5b816003600083815260200190815260200160002060006101000a81548173ffffffffffffffffffffffffffffffffffffffff021916908373ffffffffffffffffffffffffffffffffffffffff160217905550610f09600460008473ffffffffffffffffffffffffffffffffffffffff1673ffffffffffffffffffffffffffffffffffffffff168152602001908152602001600020610d98565b808273ffffffffffffffffffffffffffffffffffffffff16600073ffffffffffffffffffffffffffffffffffffffff167fddf252ad1be2c89b69c2b068fc378daa952ba7f163c4a11628f55a4df523b3ef60405160405180910390a45050565b6006805490506007600083815260200190815260200160002081905550600681908060018154018082558091505060019003906000526020600020016000909190919091505550565b600860008373ffffffffffffffffffffffffffffffffffffffff1673ffffffffffffffffffffffffffffffffffffffff168152602001908152602001600020805490506009600083815260200190815260200160002081905550600860008373ffffffffffffffffffffffffffffffffffffffff1673ffffffffffffffffffffffffffffffffffffffff1681526020019081526020016000208190806001815401808255809150506001900390600052602060002001600090919091909150555050565b6000828211156110bb576040517f08c379a00000000000000000000000000000000000000000000000000000000081526004016110b290611714565b60405180910390fd5b600082846110c991906118a2565b90508091505092915050565b8280546110e19061198c565b90600052602060002090601f016020900481019282611103576000855561114a565b82601f1061111c57805160ff191683800117855561114a565b8280016001018555821561114a579182015b8281111561114957825182559160200191906001019061112e565b5b509050611157919061115b565b5090565b5b8082111561117457600081600090555060010161115c565b5090565b600061118b611186846117f4565b6117cf565b9050828152602081018484840111156111a7576111a6611ab0565b5b6111b284828561194a565b509392505050565b6000813590506111c981611dc6565b92915050565b6000813590506111de81611ddd565b92915050565b600082601f8301126111f9576111f8611aab565b5b8135611209848260208601611178565b91505092915050565b60008135905061122181611df4565b92915050565b60006020828403121561123d5761123c611aba565b5b600061124b848285016111ba565b91505092915050565b60008060006060848603121561126d5761126c611aba565b5b600061127b868287016111ba565b935050602061128c868287016111ba565b925050604061129d86828701611212565b9150509250925092565b600080604083850312156112be576112bd611aba565b5b60006112cc858286016111ba565b92505060206112dd85828601611212565b9150509250929050565b6000602082840312156112fd576112fc611aba565b5b600061130b848285016111cf565b91505092915050565b60006020828403121561132a57611329611aba565b5b600082013567ffffffffffffffff81111561134857611347611ab5565b5b611354848285016111e4565b91505092915050565b60006020828403121561137357611372611aba565b5b600061138184828501611212565b91505092915050565b611393816118d6565b82525050565b6113a2816118e8565b82525050565b60006113b382611825565b6113bd8185611830565b93506113cd818560208601611959565b6113d681611abf565b840191505092915050565b60006113ec82611825565b6113f68185611841565b9350611406818560208601611959565b80840191505092915050565b600061141f602183611830565b915061142a82611ad0565b604082019050919050565b6000611442602283611830565b915061144d82611b1f565b604082019050919050565b6000611465601c83611830565b915061147082611b6e565b602082019050919050565b6000611488601e83611830565b915061149382611b97565b602082019050919050565b60006114ab601d83611830565b91506114b682611bc0565b602082019050919050565b60006114ce602b83611830565b91506114d982611be9565b604082019050919050565b60006114f1602183611830565b91506114fc82611c38565b604082019050919050565b6000611514601e83611830565b915061151f82611c87565b602082019050919050565b6000611537602c83611830565b915061154282611cb0565b604082019050919050565b600061155a602283611830565b915061156582611cff565b604082019050919050565b600061157d603483611830565b915061158882611d4e565b604082019050919050565b60006115a0601483611830565b91506115ab82611d9d565b602082019050919050565b6115bf81611940565b82525050565b60006115d182846113e1565b915081905092915050565b60006020820190506115f1600083018461138a565b92915050565b600060208201905061160c6000830184611399565b92915050565b6000602082019050818103600083015261162c81846113a8565b905092915050565b6000602082019050818103600083015261164d81611412565b9050919050565b6000602082019050818103600083015261166d81611435565b9050919050565b6000602082019050818103600083015261168d81611458565b9050919050565b600060208201905081810360008301526116ad8161147b565b9050919050565b600060208201905081810360008301526116cd8161149e565b9050919050565b600060208201905081810360008301526116ed816114c1565b9050919050565b6000602082019050818103600083015261170d816114e4565b9050919050565b6000602082019050818103600083015261172d81611507565b9050919050565b6000602082019050818103600083015261174d8161152a565b9050919050565b6000602082019050818103600083015261176d8161154d565b9050919050565b6000602082019050818103600083015261178d81611570565b9050919050565b600060208201905081810360008301526117ad81611593565b9050919050565b60006020820190506117c960008301846115b6565b92915050565b60006117d96117ea565b90506117e582826119be565b919050565b6000604051905090565b600067ffffffffffffffff82111561180f5761180e611a7c565b5b61181882611abf565b9050602081019050919050565b600081519050919050565b600082825260208201905092915050565b600081905092915050565b600061185782611940565b915061186283611940565b9250827fffffffffffffffffffffffffffffffffffffffffffffffffffffffffffffffff03821115611897576118966119ef565b5b828201905092915050565b60006118ad82611940565b91506118b883611940565b9250828210156118cb576118ca6119ef565b5b828203905092915050565b60006118e182611920565b9050919050565b60008115159050919050565b60007fffffffff0000000000000000000000000000000000000000000000000000000082169050919050565b600073ffffffffffffffffffffffffffffffffffffffff82169050919050565b6000819050919050565b82818337600083830152505050565b60005b8381101561197757808201518184015260208101905061195c565b83811115611986576000848401525b50505050565b600060028204905060018216806119a457607f821691505b602082108114156119b8576119b7611a1e565b5b50919050565b6119c782611abf565b810181811067ffffffffffffffff821117156119e6576119e5611a7c565b5b80604052505050565b7f4e487b7100000000000000000000000000000000000000000000000000000000600052601160045260246000fd5b7f4e487b7100000000000000000000000000000000000000000000000000000000600052602260045260246000fd5b7f4e487b7100000000000000000000000000000000000000000000000000000000600052603260045260246000fd5b7f4e487b7100000000000000000000000000000000000000000000000000000000600052604160045260246000fd5b600080fd5b600080fd5b600080fd5b600080fd5b6000601f19601f8301169050919050565b7f4572726f72202d20617070726f76616c20746f2063757272656e74206f776e6560008201527f7200000000000000000000000000000000000000000000000000000000000000602082015250565b7f6f776e657220717565727920666f72206e6f6e2d6578697374656e7420746f6b60008201527f656e000000000000000000000000000000000000000000000000000000000000602082015250565b7f4552433732313a20746f6b656e20616c7265616479206d696e74656400000000600082015250565b7f676c6f62616c20696e646578206973206f7574206f6620626f756e6473210000600082015250565b7f6f776e657220696e646578206973206f7574206f6620626f756e647321000000600082015250565b7f4572726f72202d20455243373231205472616e7366657220746f20746865207a60008201527f65726f2061646472657373000000000000000000000000000000000000000000602082015250565b7f4572726f72202d206b727970746f4269726420616c726561647920657869737460008201527f7300000000000000000000000000000000000000000000000000000000000000602082015250565b7f536166654d6174683a207375627472616374696f6e206f766572666c6f770000600082015250565b7f43757272656e742063616c6c6572206973206e6f7420746865206f776e65722060008201527f6f662074686520746f6b656e0000000000000000000000000000000000000000602082015250565b7f4552433732313a206d696e74696e6720746f20746865207a65726f206164647260008201527f6573000000000000000000000000000000000000000000000000000000000000602082015250565b7f547279696e6720746f207472616e73666572206120746f6b656e20746865206160008201527f64647265737320646f6573206e6f74206f776e21000000000000000000000000602082015250565b7f746f6b656e20646f6573206e6f74206578697374000000000000000000000000600082015250565b611dcf816118d6565b8114611dda57600080fd5b50565b611de6816118f4565b8114611df157600080fd5b50565b611dfd81611940565b8114611e0857600080fd5b5056fea264697066735822122031c85084b57c4b40f2b67cbd74e3b893072ed0dd5e9589e8c3ed87d0c63e3abe64736f6c63430008070033",
  "immutableReferences": {},
  "source": "// SPDX-License-Identifier: MIT\npragma solidity ^0.8.0;\n\nimport './ERC721Connector.sol';\n\ncontract KryptoBird is ERC721Connector {\n\n    // array to store our nfts\n    string [] public kryptoBirdz;\n\n    mapping(string => bool) _kryptoBirdzExists;\n\n    function mint(string memory _kryptoBird) public {\n\n        require(!_kryptoBirdzExists[_kryptoBird],\n        'Error - kryptoBird already exists');\n        // this is deprecated - uint _id = KryptoBirdz.push(_kryptoBird);\n        kryptoBirdz.push(_kryptoBird);\n        uint _id = kryptoBirdz.length - 1;\n\n        // .push no longer returns the length but a ref to the added element\n        _mint(msg.sender, _id);\n\n        _kryptoBirdzExists[_kryptoBird] = true;\n\n    }\n\n    constructor() ERC721Connector('KryptoBird','KBIRDZ')\n {}\n\n}\n\n\n",
  "sourcePath": "/Users/mauriceknecht/Desktop/nft-marketplace-starter-kit/src/contracts/KryptoBirdz.sol",
  "compiler": {
    "name": "solc",
    "version": "0.8.7+commit.e28d00a7.Emscripten.clang"
  },
  "schemaVersion": "3.4.1",
  "updatedAt": "2021-09-29T17:06:59.999Z",
  "networkType": "ethereum",
  "devdoc": {
    "kind": "dev",
    "methods": {
      "ownerOf(uint256)": {
        "details": "NFTs assigned to zero address are considered invalid, and queries  about them do throw.",
        "params": {
          "_tokenId": "The identifier for an NFT"
        },
        "returns": {
          "_0": "The address of the owner of the NFT"
        }
      },
      "supportsInterface(bytes4)": {
        "details": "Interface identification is specified in ERC-165. This function  uses less than 30,000 gas.",
        "params": {
          "interfaceID": "The interface identifier, as specified in ERC-165"
        },
        "returns": {
          "_0": "`true` if the contract implements `interfaceID` and  `interfaceID` is not 0xffffffff, `false` otherwise"
        }
      }
    },
    "version": 1
  },
  "userdoc": {
    "kind": "user",
    "methods": {
      "ownerOf(uint256)": {
        "notice": "Find the owner of an NFT"
      },
      "supportsInterface(bytes4)": {
        "notice": "Query if a contract implements an interface"
      }
    },
    "version": 1
  }
}